{
  "contractName": "ProductSale",
  "abi": [
    {
      "anonymous": false,
      "inputs": [
        {
          "indexed": false,
          "internalType": "uint256",
          "name": "_id",
          "type": "uint256"
        },
        {
          "indexed": false,
          "internalType": "string",
          "name": "itemName",
          "type": "string"
        },
        {
          "indexed": false,
          "internalType": "string",
          "name": "_vendor",
          "type": "string"
        },
        {
          "indexed": false,
          "internalType": "uint256",
          "name": "_price",
          "type": "uint256"
        },
        {
          "indexed": false,
          "internalType": "uint256",
          "name": "_moq",
          "type": "uint256"
        }
      ],
      "name": "newIventoryItem",
      "type": "event"
    },
    {
      "anonymous": false,
      "inputs": [
        {
          "indexed": false,
          "internalType": "uint256",
          "name": "_id",
          "type": "uint256"
        },
        {
          "indexed": false,
          "internalType": "string",
          "name": "name",
          "type": "string"
        },
        {
          "indexed": false,
          "internalType": "uint256",
          "name": "itemNumber",
          "type": "uint256"
        },
        {
          "indexed": false,
          "internalType": "uint256",
          "name": "amountPaid",
          "type": "uint256"
        },
        {
          "indexed": false,
          "internalType": "enum ProductSale.ProductTransportStatus",
          "name": "orderStatus",
          "type": "uint8"
        },
        {
          "indexed": false,
          "internalType": "address",
          "name": "new_owner",
          "type": "address"
        }
      ],
      "name": "newOrder",
      "type": "event"
    },
    {
      "anonymous": false,
      "inputs": [
        {
          "indexed": false,
          "internalType": "uint256",
          "name": "_id",
          "type": "uint256"
        },
        {
          "indexed": false,
          "internalType": "string",
          "name": "name",
          "type": "string"
        },
        {
          "indexed": false,
          "internalType": "string",
          "name": "description",
          "type": "string"
        }
      ],
      "name": "newProduct",
      "type": "event"
    },
    {
      "anonymous": false,
      "inputs": [
        {
          "indexed": false,
          "internalType": "uint256",
          "name": "_id",
          "type": "uint256"
        },
        {
          "indexed": false,
          "internalType": "string",
          "name": "_name",
          "type": "string"
        },
        {
          "indexed": false,
          "internalType": "string",
          "name": "_description",
          "type": "string"
        },
        {
          "indexed": false,
          "internalType": "string",
          "name": "_provider",
          "type": "string"
        },
        {
          "indexed": false,
          "internalType": "uint256",
          "name": "_price",
          "type": "uint256"
        }
      ],
      "name": "newTransportService",
      "type": "event"
    },
    {
      "anonymous": false,
      "inputs": [
        {
          "indexed": false,
          "internalType": "uint256",
          "name": "id",
          "type": "uint256"
        },
        {
          "indexed": false,
          "internalType": "string",
          "name": "name",
          "type": "string"
        },
        {
          "indexed": false,
          "internalType": "string",
          "name": "description",
          "type": "string"
        },
        {
          "indexed": false,
          "internalType": "enum UserRegistration.UserType",
          "name": "role",
          "type": "uint8"
        }
      ],
      "name": "newUser",
      "type": "event"
    },
    {
      "inputs": [
        {
          "internalType": "uint256",
          "name": "_productId",
          "type": "uint256"
        },
        {
          "internalType": "uint256",
          "name": "_price",
          "type": "uint256"
        },
        {
          "internalType": "uint256",
          "name": "_moq",
          "type": "uint256"
        }
      ],
      "name": "addInventoryItem",
      "outputs": [],
      "stateMutability": "nonpayable",
      "type": "function"
    },
    {
      "inputs": [
        {
          "internalType": "string",
          "name": "_name",
          "type": "string"
        },
        {
          "internalType": "string",
          "name": "_description",
          "type": "string"
        },
        {
          "internalType": "uint256",
          "name": "_price",
          "type": "uint256"
        },
        {
          "internalType": "uint256",
          "name": "_moq",
          "type": "uint256"
        }
      ],
      "name": "addProduct",
      "outputs": [],
      "stateMutability": "nonpayable",
      "type": "function"
    },
    {
      "inputs": [
        {
          "internalType": "string",
          "name": "_name",
          "type": "string"
        },
        {
          "internalType": "string",
          "name": "_description",
          "type": "string"
        },
        {
          "internalType": "uint256",
          "name": "_price",
          "type": "uint256"
        }
      ],
      "name": "addTransportService",
      "outputs": [],
      "stateMutability": "nonpayable",
      "type": "function"
    },
    {
      "inputs": [
        {
          "internalType": "string",
          "name": "_name",
          "type": "string"
        },
        {
          "internalType": "string",
          "name": "_description",
          "type": "string"
        },
        {
          "internalType": "enum UserRegistration.UserType",
          "name": "_role",
          "type": "uint8"
        }
      ],
      "name": "addUser",
      "outputs": [],
      "stateMutability": "nonpayable",
      "type": "function"
    },
    {
      "inputs": [
        {
          "internalType": "uint256",
          "name": "",
          "type": "uint256"
        }
      ],
      "name": "users",
      "outputs": [
        {
          "internalType": "string",
          "name": "name",
          "type": "string"
        },
        {
          "internalType": "string",
          "name": "description",
          "type": "string"
        },
        {
          "internalType": "address",
          "name": "userAccount",
          "type": "address"
        },
        {
          "internalType": "enum UserRegistration.UserType",
          "name": "role",
          "type": "uint8"
        }
      ],
      "stateMutability": "view",
      "type": "function",
      "constant": true
    },
    {
      "inputs": [
        {
          "internalType": "uint256",
          "name": "_id",
          "type": "uint256"
        }
      ],
      "name": "viewInventoryItem",
      "outputs": [
        {
          "internalType": "string",
          "name": "",
          "type": "string"
        },
        {
          "internalType": "string",
          "name": "",
          "type": "string"
        },
        {
          "internalType": "string",
          "name": "",
          "type": "string"
        },
        {
          "internalType": "uint256",
          "name": "",
          "type": "uint256"
        },
        {
          "internalType": "uint256",
          "name": "",
          "type": "uint256"
        },
        {
          "internalType": "enum ProductCreation.ProductSaleStatus",
          "name": "",
          "type": "uint8"
        }
      ],
      "stateMutability": "view",
      "type": "function",
      "constant": true
    },
    {
      "inputs": [
        {
          "internalType": "uint256",
          "name": "_userId",
          "type": "uint256"
        }
      ],
      "name": "viewUser",
      "outputs": [
        {
          "internalType": "string",
          "name": "",
          "type": "string"
        },
        {
          "internalType": "string",
          "name": "",
          "type": "string"
        },
        {
          "internalType": "enum UserRegistration.UserType",
          "name": "",
          "type": "uint8"
        }
      ],
      "stateMutability": "view",
      "type": "function",
      "constant": true
    },
    {
      "inputs": [
        {
          "internalType": "uint256",
          "name": "itemID",
          "type": "uint256"
        },
        {
          "internalType": "uint256",
          "name": "quantity",
          "type": "uint256"
        }
      ],
      "name": "orderProduct",
      "outputs": [],
      "stateMutability": "payable",
      "type": "function",
      "payable": true
    },
    {
      "inputs": [
        {
          "internalType": "uint256",
          "name": "orderId",
          "type": "uint256"
        }
      ],
      "name": "acknowledgeReciept",
      "outputs": [
        {
          "internalType": "string",
          "name": "",
          "type": "string"
        }
      ],
      "stateMutability": "nonpayable",
      "type": "function"
    }
  ],
  "bytecode": "0x608060405234801561001057600080fd5b50613126806100206000396000f3fe6080604052600436106100855760003560e01c80638917e621116100595780638917e621146104ca57806393b0202a14610679578063b7df2fde146106c8578063cfa21ab614610700578063d35a6e2d146107e557610085565b80628bc0601461008a57806301cecd141461013e578063365b98b21461022d57806382f27c1214610395575b600080fd5b34801561009657600080fd5b506100c3600480360360208110156100ad57600080fd5b81019080803590602001909291905050506108cd565b6040518080602001828103825283818151815260200191508051906020019080838360005b838110156101035780820151818401526020810190506100e8565b50505050905090810190601f1680156101305780820380516001836020036101000a031916815260200191505b509250505060405180910390f35b34801561014a57600080fd5b5061022b6004803603608081101561016157600080fd5b810190808035906020019064010000000081111561017e57600080fd5b82018360208201111561019057600080fd5b803590602001918460018302840111640100000000831117156101b257600080fd5b9091929391929390803590602001906401000000008111156101d357600080fd5b8201836020820111156101e557600080fd5b8035906020019184600183028401116401000000008311171561020757600080fd5b90919293919293908035906020019092919080359060200190929190505050610b74565b005b34801561023957600080fd5b506102666004803603602081101561025057600080fd5b8101908080359060200190929190505050610ea6565b6040518080602001806020018573ffffffffffffffffffffffffffffffffffffffff1673ffffffffffffffffffffffffffffffffffffffff1681526020018460038111156102b057fe5b60ff168152602001838103835287818151815260200191508051906020019080838360005b838110156102f05780820151818401526020810190506102d5565b50505050905090810190601f16801561031d5780820380516001836020036101000a031916815260200191505b50838103825286818151815260200191508051906020019080838360005b8381101561035657808201518184015260208101905061033b565b50505050905090810190601f1680156103835780820380516001836020036101000a031916815260200191505b50965050505050505060405180910390f35b3480156103a157600080fd5b506103ce600480360360208110156103b857600080fd5b8101908080359060200190929190505050611040565b6040518080602001806020018460038111156103e657fe5b60ff168152602001838103835286818151815260200191508051906020019080838360005b8381101561042657808201518184015260208101905061040b565b50505050905090810190601f1680156104535780820380516001836020036101000a031916815260200191505b50838103825285818151815260200191508051906020019080838360005b8381101561048c578082015181840152602081019050610471565b50505050905090810190601f1680156104b95780820380516001836020036101000a031916815260200191505b509550505050505060405180910390f35b3480156104d657600080fd5b50610503600480360360208110156104ed57600080fd5b81019080803590602001909291905050506111fd565b6040518080602001806020018060200187815260200186815260200185600181111561052b57fe5b60ff16815260200184810384528a818151815260200191508051906020019080838360005b8381101561056b578082015181840152602081019050610550565b50505050905090810190601f1680156105985780820380516001836020036101000a031916815260200191505b50848103835289818151815260200191508051906020019080838360005b838110156105d15780820151818401526020810190506105b6565b50505050905090810190601f1680156105fe5780820380516001836020036101000a031916815260200191505b50848103825288818151815260200191508051906020019080838360005b8381101561063757808201518184015260208101905061061c565b50505050905090810190601f1680156106645780820380516001836020036101000a031916815260200191505b50995050505050505050505060405180910390f35b34801561068557600080fd5b506106c66004803603606081101561069c57600080fd5b81019080803590602001909291908035906020019092919080359060200190929190505050611552565b005b6106fe600480360360408110156106de57600080fd5b810190808035906020019092919080359060200190929190505050611b79565b005b34801561070c57600080fd5b506107e36004803603606081101561072357600080fd5b810190808035906020019064010000000081111561074057600080fd5b82018360208201111561075257600080fd5b8035906020019184600183028401116401000000008311171561077457600080fd5b90919293919293908035906020019064010000000081111561079557600080fd5b8201836020820111156107a757600080fd5b803590602001918460018302840111640100000000831117156107c957600080fd5b9091929391929390803590602001909291905050506125a1565b005b3480156107f157600080fd5b506108cb6004803603606081101561080857600080fd5b810190808035906020019064010000000081111561082557600080fd5b82018360208201111561083757600080fd5b8035906020019184600183028401116401000000008311171561085957600080fd5b90919293919293908035906020019064010000000081111561087a57600080fd5b82018360208201111561088c57600080fd5b803590602001918460018302840111640100000000831117156108ae57600080fd5b9091929391929390803560ff1690602001909291905050506129f7565b005b606060011515600360003373ffffffffffffffffffffffffffffffffffffffff1673ffffffffffffffffffffffffffffffffffffffff16815260200190815260200160002060009054906101000a900460ff16151514610978576040517f08c379a000000000000000000000000000000000000000000000000000000000815260040180806020018281038252602281526020018061308c6022913960400191505060405180910390fd5b600b828154811061098557fe5b906000526020600020906009020160080160009054906101000a900473ffffffffffffffffffffffffffffffffffffffff1673ffffffffffffffffffffffffffffffffffffffff163373ffffffffffffffffffffffffffffffffffffffff16146109ee57600080fd5b600b82815481106109fb57fe5b906000526020600020906009020160000160050160019054906101000a900473ffffffffffffffffffffffffffffffffffffffff16600a60006101000a81548173ffffffffffffffffffffffffffffffffffffffff021916908373ffffffffffffffffffffffffffffffffffffffff160217905550600a60009054906101000a900473ffffffffffffffffffffffffffffffffffffffff1673ffffffffffffffffffffffffffffffffffffffff166108fc600b8481548110610ab957fe5b9060005260206000209060090201600701549081150290604051600060405180830381858888f19350505050158015610af6573d6000803e3d6000fd5b506002600b8381548110610b0657fe5b906000526020600020906009020160080160146101000a81548160ff02191690836002811115610b3257fe5b02179055506040518060400160405280601681526020017f44656c697665726564207375636365737366756c6c79000000000000000000008152509050919050565b60011515600360003373ffffffffffffffffffffffffffffffffffffffff1673ffffffffffffffffffffffffffffffffffffffff16815260200190815260200160002060009054906101000a900460ff16151514610c1d576040517f08c379a000000000000000000000000000000000000000000000000000000000815260040180806020018281038252602281526020018061308c6022913960400191505060405180910390fd5b6004604051806060016040528088888080601f016020809104026020016040519081016040528093929190818152602001838380828437600081840152601f19601f82011690508083019250505050505050815260200186868080601f016020809104026020016040519081016040528093929190818152602001838380828437600081840152601f19601f8201169050808301925050505050505081526020013373ffffffffffffffffffffffffffffffffffffffff1681525090806001815401808255809150506001900390600052602060002090600302016000909190919091506000820151816000019080519060200190610d1d929190612fae565b506020820151816001019080519060200190610d3a929190612fae565b5060408201518160020160006101000a81548173ffffffffffffffffffffffffffffffffffffffff021916908373ffffffffffffffffffffffffffffffffffffffff16021790555050506000610d9f6001600480549050612e1e90919063ffffffff16565b9050336007600083815260200190815260200160002060006101000a81548173ffffffffffffffffffffffffffffffffffffffff021916908373ffffffffffffffffffffffffffffffffffffffff1602179055507f3f16dcdff7ba9d01c350fd10ed43011166a63dd7cd4f0bf5c8560e272aa20c5181888888886040518086815260200180602001806020018381038352878782818152602001925080828437600081840152601f19601f8201169050808301925050508381038252858582818152602001925080828437600081840152601f19601f82011690508083019250505097505050505050505060405180910390a1610e9d818484611552565b50505050505050565b60008181548110610eb357fe5b9060005260206000209060030201600091509050806000018054600181600116156101000203166002900480601f016020809104026020016040519081016040528092919081815260200182805460018160011615610100020316600290048015610f5f5780601f10610f3457610100808354040283529160200191610f5f565b820191906000526020600020905b815481529060010190602001808311610f4257829003601f168201915b505050505090806001018054600181600116156101000203166002900480601f016020809104026020016040519081016040528092919081815260200182805460018160011615610100020316600290048015610ffd5780601f10610fd257610100808354040283529160200191610ffd565b820191906000526020600020905b815481529060010190602001808311610fe057829003601f168201915b5050505050908060020160009054906101000a900473ffffffffffffffffffffffffffffffffffffffff16908060020160149054906101000a900460ff16905084565b606080600060606000858154811061105457fe5b90600052602060002090600302016000018054600181600116156101000203166002900480601f0160208091040260200160405190810160405280929190818152602001828054600181600116156101000203166002900480156110f95780601f106110ce576101008083540402835291602001916110f9565b820191906000526020600020905b8154815290600101906020018083116110dc57829003601f168201915b5050505050905060606000868154811061110f57fe5b90600052602060002090600302016001018054600181600116156101000203166002900480601f0160208091040260200160405190810160405280929190818152602001828054600181600116156101000203166002900480156111b45780601f10611189576101008083540402835291602001916111b4565b820191906000526020600020905b81548152906001019060200180831161119757829003601f168201915b5050505050905060008087815481106111c957fe5b906000526020600020906003020160020160149054906101000a900460ff1690508282829550955095505050509193909250565b6060806060600080600060606006888154811061121657fe5b90600052602060002090600602016000016000018054600181600116156101000203166002900480601f0160208091040260200160405190810160405280929190818152602001828054600181600116156101000203166002900480156112be5780601f10611293576101008083540402835291602001916112be565b820191906000526020600020905b8154815290600101906020018083116112a157829003601f168201915b505050505090506060600689815481106112d457fe5b90600052602060002090600602016000016001018054600181600116156101000203166002900480601f01602080910402602001604051908101604052809291908181526020018280546001816001161561010002031660029004801561137c5780601f106113515761010080835404028352916020019161137c565b820191906000526020600020905b81548152906001019060200180831161135f57829003601f168201915b50505050509050606060006002600060068d8154811061139857fe5b906000526020600020906006020160050160019054906101000a900473ffffffffffffffffffffffffffffffffffffffff1673ffffffffffffffffffffffffffffffffffffffff1673ffffffffffffffffffffffffffffffffffffffff168152602001908152602001600020548154811061140f57fe5b90600052602060002090600302016000018054600181600116156101000203166002900480601f0160208091040260200160405190810160405280929190818152602001828054600181600116156101000203166002900480156114b45780601f10611489576101008083540402835291602001916114b4565b820191906000526020600020905b81548152906001019060200180831161149757829003601f168201915b50505050509050600060068b815481106114ca57fe5b9060005260206000209060060201600301549050600060068c815481106114ed57fe5b9060005260206000209060060201600401549050600060068d8154811061151057fe5b906000526020600020906006020160050160009054906101000a900460ff1690508585858585859b509b509b509b509b509b5050505050505091939550919395565b60011515600360003373ffffffffffffffffffffffffffffffffffffffff1673ffffffffffffffffffffffffffffffffffffffff16815260200190815260200160002060009054906101000a900460ff161515146115fb576040517f08c379a000000000000000000000000000000000000000000000000000000000815260040180806020018281038252602281526020018061308c6022913960400191505060405180910390fd5b60066040518060a001604052806004868154811061161557fe5b9060005260206000209060030201604051806060016040529081600082018054600181600116156101000203166002900480601f0160208091040260200160405190810160405280929190818152602001828054600181600116156101000203166002900480156116c75780601f1061169c576101008083540402835291602001916116c7565b820191906000526020600020905b8154815290600101906020018083116116aa57829003601f168201915b50505050508152602001600182018054600181600116156101000203166002900480601f0160208091040260200160405190810160405280929190818152602001828054600181600116156101000203166002900480156117695780601f1061173e57610100808354040283529160200191611769565b820191906000526020600020905b81548152906001019060200180831161174c57829003601f168201915b505050505081526020016002820160009054906101000a900473ffffffffffffffffffffffffffffffffffffffff1673ffffffffffffffffffffffffffffffffffffffff1673ffffffffffffffffffffffffffffffffffffffff16815250508152602001848152602001838152602001600060018111156117e657fe5b81526020013373ffffffffffffffffffffffffffffffffffffffff1681525090806001815401808255809150506001900390600052602060002090600602016000909190919091506000820151816000016000820151816000019080519060200190611853929190612fae565b506020820151816001019080519060200190611870929190612fae565b5060408201518160020160006101000a81548173ffffffffffffffffffffffffffffffffffffffff021916908373ffffffffffffffffffffffffffffffffffffffff1602179055505050602082015181600301556040820151816004015560608201518160050160006101000a81548160ff021916908360018111156118f257fe5b021790555060808201518160050160016101000a81548173ffffffffffffffffffffffffffffffffffffffff021916908373ffffffffffffffffffffffffffffffffffffffff160217905550505060006001600680549050039050336009600083815260200190815260200160002060006101000a81548173ffffffffffffffffffffffffffffffffffffffff021916908373ffffffffffffffffffffffffffffffffffffffff1602179055507f05325ee361c3f80a52d44d6bda5c30795cdbdaa88bfce86728179ff94572ccfa81600486815481106119ce57fe5b90600052602060002090600302016000016000600260003373ffffffffffffffffffffffffffffffffffffffff1673ffffffffffffffffffffffffffffffffffffffff1681526020019081526020016000205481548110611a2b57fe5b90600052602060002090600302016000018686604051808681526020018060200180602001858152602001848152602001838103835287818154600181600116156101000203166002900481526020019150805460018160011615610100020316600290048015611add5780601f10611ab257610100808354040283529160200191611add565b820191906000526020600020905b815481529060010190602001808311611ac057829003601f168201915b5050838103825286818154600181600116156101000203166002900481526020019150805460018160011615610100020316600290048015611b605780601f10611b3557610100808354040283529160200191611b60565b820191906000526020600020905b815481529060010190602001808311611b4357829003601f168201915b505097505050505050505060405180910390a150505050565b60011515600360003373ffffffffffffffffffffffffffffffffffffffff1673ffffffffffffffffffffffffffffffffffffffff16815260200190815260200160002060009054906101000a900460ff16151514611c22576040517f08c379a000000000000000000000000000000000000000000000000000000000815260040180806020018281038252602281526020018061308c6022913960400191505060405180910390fd5b8160006001811115611c3057fe5b60068281548110611c3d57fe5b906000526020600020906006020160050160009054906101000a900460ff166001811115611c6757fe5b14611cda576040517f08c379a00000000000000000000000000000000000000000000000000000000081526004018080602001828103825260138152602001807f4974656d206973206e6f74206f6e2073616c650000000000000000000000000081525060200191505060405180910390fd5b8282611d0d60068381548110611cec57fe5b90600052602060002090600602016003015482612e6890919063ffffffff16565b3414611d64576040517f08c379a00000000000000000000000000000000000000000000000000000000081526004018080602001828103825260228152602001806130ae6022913960400191505060405180910390fd5b6001841015611ddb576040517f08c379a000000000000000000000000000000000000000000000000000000000815260040180806020018281038252601d8152602001807f596f752068617665206e6f7420696e7075742061207175616e7469747900000081525060200191505060405180910390fd5b6000806002600060068981548110611def57fe5b906000526020600020906006020160050160019054906101000a900473ffffffffffffffffffffffffffffffffffffffff1673ffffffffffffffffffffffffffffffffffffffff1673ffffffffffffffffffffffffffffffffffffffff1681526020019081526020016000205481548110611e6657fe5b906000526020600020906003020160020160149054906101000a900460ff16905060006003811115611e9457fe5b816003811115611ea057fe5b1415611f1e5760068681548110611eb357fe5b906000526020600020906006020160040154851015611f1d576040517f08c379a00000000000000000000000000000000000000000000000000000000081526004018080602001828103825260388152602001806130546038913960400191505060405180910390fd5b5b6000611f5160068881548110611f3057fe5b90600052602060002090600602016003015487612e6890919063ffffffff16565b9050600b6040518060a0016040528060068a81548110611f6d57fe5b90600052602060002090600602016040518060a001604052908160008201604051806060016040529081600082018054600181600116156101000203166002900480601f01602080910402602001604051908101604052809291908181526020018280546001816001161561010002031660029004801561202f5780601f106120045761010080835404028352916020019161202f565b820191906000526020600020905b81548152906001019060200180831161201257829003601f168201915b50505050508152602001600182018054600181600116156101000203166002900480601f0160208091040260200160405190810160405280929190818152602001828054600181600116156101000203166002900480156120d15780601f106120a6576101008083540402835291602001916120d1565b820191906000526020600020905b8154815290600101906020018083116120b457829003601f168201915b505050505081526020016002820160009054906101000a900473ffffffffffffffffffffffffffffffffffffffff1673ffffffffffffffffffffffffffffffffffffffff1673ffffffffffffffffffffffffffffffffffffffff1681525050815260200160038201548152602001600482015481526020016005820160009054906101000a900460ff16600181111561216657fe5b600181111561217157fe5b81526020016005820160019054906101000a900473ffffffffffffffffffffffffffffffffffffffff1673ffffffffffffffffffffffffffffffffffffffff1673ffffffffffffffffffffffffffffffffffffffff168152505081526020018881526020018381526020013373ffffffffffffffffffffffffffffffffffffffff1681526020016000600281111561220557fe5b8152509080600181540180825580915050600190039060005260206000209060090201600090919091909150600082015181600001600082015181600001600082015181600001908051906020019061225f929190612fae565b50602082015181600101908051906020019061227c929190612fae565b5060408201518160020160006101000a81548173ffffffffffffffffffffffffffffffffffffffff021916908373ffffffffffffffffffffffffffffffffffffffff1602179055505050602082015181600301556040820151816004015560608201518160050160006101000a81548160ff021916908360018111156122fe57fe5b021790555060808201518160050160016101000a81548173ffffffffffffffffffffffffffffffffffffffff021916908373ffffffffffffffffffffffffffffffffffffffff1602179055505050602082015181600601556040820151816007015560608201518160080160006101000a81548173ffffffffffffffffffffffffffffffffffffffff021916908373ffffffffffffffffffffffffffffffffffffffff16021790555060808201518160080160146101000a81548160ff021916908360028111156123cb57fe5b0217905550505060006001600b8054905003905033600c600083815260200190815260200160002060006101000a81548173ffffffffffffffffffffffffffffffffffffffff021916908373ffffffffffffffffffffffffffffffffffffffff1602179055507f65317827a25c08d7105ed401a81e31279d105a76f61b3f19acc78b518cc2fa948160068a8154811061246057fe5b90600052602060002090600602016000016000018985600b868154811061248357fe5b906000526020600020906009020160080160149054906101000a900460ff163360405180878152602001806020018681526020018581526020018460028111156124c957fe5b60ff1681526020018373ffffffffffffffffffffffffffffffffffffffff1673ffffffffffffffffffffffffffffffffffffffff1681526020018281038252878181546001816001161561010002031660029004815260200191508054600181600116156101000203166002900480156125845780601f1061255957610100808354040283529160200191612584565b820191906000526020600020905b81548152906001019060200180831161256757829003601f168201915b505097505050505050505060405180910390a15050505050505050565b60011515600360003373ffffffffffffffffffffffffffffffffffffffff1673ffffffffffffffffffffffffffffffffffffffff16815260200190815260200160002060009054906101000a900460ff1615151461264a576040517f08c379a000000000000000000000000000000000000000000000000000000000815260040180806020018281038252602281526020018061308c6022913960400191505060405180910390fd5b60606000600260003373ffffffffffffffffffffffffffffffffffffffff1673ffffffffffffffffffffffffffffffffffffffff168152602001908152602001600020548154811061269857fe5b90600052602060002090600302016000018054600181600116156101000203166002900480601f01602080910402602001604051908101604052809291908181526020018280546001816001161561010002031660029004801561273d5780601f106127125761010080835404028352916020019161273d565b820191906000526020600020905b81548152906001019060200180831161272057829003601f168201915b505050505090506005604051806080016040528088888080601f016020809104026020016040519081016040528093929190818152602001838380828437600081840152601f19601f82011690508083019250505050505050815260200186868080601f016020809104026020016040519081016040528093929190818152602001838380828437600081840152601f19601f8201169050808301925050505050505081526020018381526020018481525090806001815401808255809150506001900390600052602060002090600402016000909190919091506000820151816000019080519060200190612834929190612fae565b506020820151816001019080519060200190612851929190612fae565b50604082015181600201908051906020019061286e929190612fae565b5060608201518160030155505060006001600580549050039050336008600083815260200190815260200160002060006101000a81548173ffffffffffffffffffffffffffffffffffffffff021916908373ffffffffffffffffffffffffffffffffffffffff1602179055507f6ecf6e7361e9cb1c80560e36f0b59ef0d38f0b6e6ee0ac1db99995706c219258818888888887896040518088815260200180602001806020018060200185815260200184810384528a8a82818152602001925080828437600081840152601f19601f8201169050808301925050508481038352888882818152602001925080828437600081840152601f19601f820116905080830192505050848103825286818151815260200191508051906020019080838360005b838110156129ac578082015181840152602081019050612991565b50505050905090810190601f1680156129d95780820380516001836020036101000a031916815260200191505b509a505050505050505050505060405180910390a150505050505050565b3360001515600360008373ffffffffffffffffffffffffffffffffffffffff1673ffffffffffffffffffffffffffffffffffffffff16815260200190815260200160002060009054906101000a900460ff16151514612abe576040517f08c379a000000000000000000000000000000000000000000000000000000000815260040180806020018281038252601b8152602001807f596f7520616c7265616479206861766520616e206163636f756e74000000000081525060200191505060405180910390fd5b6000604051806080016040528088888080601f016020809104026020016040519081016040528093929190818152602001838380828437600081840152601f19601f82011690508083019250505050505050815260200186868080601f016020809104026020016040519081016040528093929190818152602001838380828437600081840152601f19601f8201169050808301925050505050505081526020013373ffffffffffffffffffffffffffffffffffffffff168152602001846003811115612b8757fe5b81525090806001815401808255809150506001900390600052602060002090600302016000909190919091506000820151816000019080519060200190612bcf929190612fae565b506020820151816001019080519060200190612bec929190612fae565b5060408201518160020160006101000a81548173ffffffffffffffffffffffffffffffffffffffff021916908373ffffffffffffffffffffffffffffffffffffffff16021790555060608201518160020160146101000a81548160ff02191690836003811115612c5857fe5b02179055505050600060016000805490500363ffffffff169050336001600083815260200190815260200160002060006101000a81548173ffffffffffffffffffffffffffffffffffffffff021916908373ffffffffffffffffffffffffffffffffffffffff16021790555080600260003373ffffffffffffffffffffffffffffffffffffffff1673ffffffffffffffffffffffffffffffffffffffff168152602001908152602001600020819055506001600360003373ffffffffffffffffffffffffffffffffffffffff1673ffffffffffffffffffffffffffffffffffffffff16815260200190815260200160002060006101000a81548160ff0219169083151502179055507f6bc9dfa6cd5c47cfda0a28c8500dc038d68815409167dd17805597f5c0543819818888888888604051808781526020018060200180602001846003811115612da557fe5b60ff1681526020018381038352888882818152602001925080828437600081840152601f19601f8201169050808301925050508381038252868682818152602001925080828437600081840152601f19601f8201169050808301925050509850505050505050505060405180910390a150505050505050565b6000612e6083836040518060400160405280601e81526020017f536166654d6174683a207375627472616374696f6e206f766572666c6f770000815250612eee565b905092915050565b600080831415612e7b5760009050612ee8565b6000828402905082848281612e8c57fe5b0414612ee3576040517f08c379a00000000000000000000000000000000000000000000000000000000081526004018080602001828103825260218152602001806130d06021913960400191505060405180910390fd5b809150505b92915050565b6000838311158290612f9b576040517f08c379a00000000000000000000000000000000000000000000000000000000081526004018080602001828103825283818151815260200191508051906020019080838360005b83811015612f60578082015181840152602081019050612f45565b50505050905090810190601f168015612f8d5780820380516001836020036101000a031916815260200191505b509250505060405180910390fd5b5060008385039050809150509392505050565b828054600181600116156101000203166002900490600052602060002090601f016020900481019282601f10612fef57805160ff191683800117855561301d565b8280016001018555821561301d579182015b8281111561301c578251825591602001919060010190613001565b5b50905061302a919061302e565b5090565b61305091905b8082111561304c576000816000905550600101613034565b5090565b9056fe20596f7572206f72646572207175616e746974792069732062656c6f7720746865206d696e696d756d206f72646572207175616e74697479506c65617365207265677374657220696e746f206f75722073697465206669727374596f75206861766520746f20696e7075742074686520726967687420616d6f756e74536166654d6174683a206d756c7469706c69636174696f6e206f766572666c6f77a26469706673582212201acbc4072407e3cccad2c7a1d28619b18aa358e84521f019f7fa194be51e5df864736f6c63430006000033",
  "source": "// SPDX-License-Identifier: UNLICENSED\r\npragma solidity ^0.6.0;\r\n\r\nimport \"./productCreation.sol\";\r\n\r\ncontract ProductSale is ProductCreation {\r\n    address payable recipient;\r\n\r\n    enum ProductTransportStatus {awaitingPickUp, inTransit, delivered}\r\n    enum ProductCondition {perfect, damaged}\r\n\r\n    struct ProductOrder {\r\n        VendorInventory orderedItem;\r\n        uint256 quantity;\r\n        uint256 cashPaid;\r\n        address orderedBy;\r\n        ProductTransportStatus transportStatus;\r\n    }\r\n\r\n    ProductOrder[] orders;\r\n    mapping(uint256 => address) ordersMade;\r\n\r\n    event newOrder(\r\n        uint256 _id,\r\n        string name,\r\n        uint256 itemNumber,\r\n        uint256 amountPaid,\r\n        ProductTransportStatus orderStatus,\r\n        address new_owner\r\n    );\r\n\r\n    modifier rightPrice(uint256 _itemId, uint256 _quantity) {\r\n        require(\r\n            msg.value == _quantity.mul(vendorInventory[_itemId].price),\r\n            \"You have to input the right amount\"\r\n        );\r\n        _;\r\n    }\r\n\r\n    modifier _onSale(uint256 _itemId) {\r\n        require(\r\n            vendorInventory[_itemId].saleStatus == ProductSaleStatus.onSale,\r\n            \"Item is not on sale\"\r\n        );\r\n        _;\r\n    }\r\n\r\n    function orderProduct(uint256 itemID, uint256 quantity)\r\n        external\r\n        payable\r\n        usersOnly\r\n        _onSale(itemID)\r\n        rightPrice(itemID, quantity)\r\n    {\r\n        require(quantity >= 1, \"You have not input a quantity\");\r\n        UserType vendorRole =\r\n            users[userToProfile[vendorInventory[itemID].seller]].role;\r\n        if (vendorRole == UserType.manufacturer) {\r\n            require(\r\n                quantity >= vendorInventory[itemID].minimumOrderQuantity,\r\n                \" Your order quantity is below the minimum order quantity\"\r\n            );\r\n        }\r\n        uint256 totalCharge = quantity.mul(vendorInventory[itemID].price);\r\n        orders.push(\r\n            ProductOrder(\r\n                vendorInventory[itemID],\r\n                quantity,\r\n                totalCharge,\r\n                msg.sender,\r\n                ProductTransportStatus.awaitingPickUp\r\n            )\r\n        );\r\n        uint256 id = orders.length - 1;\r\n        ordersMade[id] = msg.sender;\r\n        emit newOrder(\r\n            id,\r\n            vendorInventory[itemID].item.name,\r\n            quantity,\r\n            totalCharge,\r\n            orders[id].transportStatus,\r\n            msg.sender\r\n        );\r\n    }\r\n\r\n    function acknowledgeReciept(uint256 orderId)\r\n        external\r\n        usersOnly\r\n        returns (string memory)\r\n    {\r\n        require(msg.sender == orders[orderId].orderedBy);\r\n        recipient = payable(orders[orderId].orderedItem.seller);\r\n        recipient.transfer(orders[orderId].cashPaid);\r\n        orders[orderId].transportStatus = ProductTransportStatus.delivered;\r\n        return (\"Delivered successfully\");\r\n    }\r\n}\r\n",
  "sourcePath": "C:\\Users\\Sam\\Documents\\KryptMart\\KryptMart\\contracts\\productSale.sol",
  "compiler": {
    "name": "solc",
    "version": "0.6.0+commit.26b70077.Emscripten.clang"
  },
  "schemaVersion": "3.2.5",
  "updatedAt": "2020-12-20T23:23:50.171Z",
  "networkType": "ethereum",
  "devdoc": {
    "methods": {}
  },
  "userdoc": {
    "methods": {}
  }
}