{
  "contractName": "ProductCreation",
  "abi": [
    {
      "anonymous": false,
      "inputs": [
        {
          "indexed": false,
          "internalType": "uint256",
          "name": "_id",
          "type": "uint256"
        },
        {
          "indexed": false,
          "internalType": "string",
          "name": "itemName",
          "type": "string"
        },
        {
          "indexed": false,
          "internalType": "string",
          "name": "_vendor",
          "type": "string"
        },
        {
          "indexed": false,
          "internalType": "uint256",
          "name": "_price",
          "type": "uint256"
        },
        {
          "indexed": false,
          "internalType": "uint256",
          "name": "_moq",
          "type": "uint256"
        }
      ],
      "name": "newIventoryItem",
      "type": "event"
    },
    {
      "anonymous": false,
      "inputs": [
        {
          "indexed": false,
          "internalType": "uint256",
          "name": "_id",
          "type": "uint256"
        },
        {
          "indexed": false,
          "internalType": "string",
          "name": "name",
          "type": "string"
        },
        {
          "indexed": false,
          "internalType": "string",
          "name": "description",
          "type": "string"
        }
      ],
      "name": "newProduct",
      "type": "event"
    },
    {
      "anonymous": false,
      "inputs": [
        {
          "indexed": false,
          "internalType": "uint256",
          "name": "_id",
          "type": "uint256"
        },
        {
          "indexed": false,
          "internalType": "string",
          "name": "_name",
          "type": "string"
        },
        {
          "indexed": false,
          "internalType": "string",
          "name": "_description",
          "type": "string"
        },
        {
          "indexed": false,
          "internalType": "string",
          "name": "_provider",
          "type": "string"
        },
        {
          "indexed": false,
          "internalType": "uint256",
          "name": "_price",
          "type": "uint256"
        }
      ],
      "name": "newTransportService",
      "type": "event"
    },
    {
      "anonymous": false,
      "inputs": [
        {
          "indexed": false,
          "internalType": "uint256",
          "name": "id",
          "type": "uint256"
        },
        {
          "indexed": false,
          "internalType": "string",
          "name": "name",
          "type": "string"
        },
        {
          "indexed": false,
          "internalType": "string",
          "name": "description",
          "type": "string"
        },
        {
          "indexed": false,
          "internalType": "enum UserRegistration.UserType",
          "name": "role",
          "type": "uint8"
        }
      ],
      "name": "newUser",
      "type": "event"
    },
    {
      "inputs": [
        {
          "internalType": "string",
          "name": "_name",
          "type": "string"
        },
        {
          "internalType": "string",
          "name": "_description",
          "type": "string"
        },
        {
          "internalType": "enum UserRegistration.UserType",
          "name": "_role",
          "type": "uint8"
        }
      ],
      "name": "addUser",
      "outputs": [],
      "stateMutability": "nonpayable",
      "type": "function"
    },
    {
      "inputs": [
        {
          "internalType": "uint256",
          "name": "",
          "type": "uint256"
        }
      ],
      "name": "users",
      "outputs": [
        {
          "internalType": "string",
          "name": "name",
          "type": "string"
        },
        {
          "internalType": "string",
          "name": "description",
          "type": "string"
        },
        {
          "internalType": "address",
          "name": "userAccount",
          "type": "address"
        },
        {
          "internalType": "enum UserRegistration.UserType",
          "name": "role",
          "type": "uint8"
        }
      ],
      "stateMutability": "view",
      "type": "function",
      "constant": true
    },
    {
      "inputs": [
        {
          "internalType": "uint256",
          "name": "_userId",
          "type": "uint256"
        }
      ],
      "name": "viewUser",
      "outputs": [
        {
          "internalType": "string",
          "name": "",
          "type": "string"
        },
        {
          "internalType": "string",
          "name": "",
          "type": "string"
        },
        {
          "internalType": "enum UserRegistration.UserType",
          "name": "",
          "type": "uint8"
        }
      ],
      "stateMutability": "view",
      "type": "function",
      "constant": true
    },
    {
      "inputs": [
        {
          "internalType": "string",
          "name": "_name",
          "type": "string"
        },
        {
          "internalType": "string",
          "name": "_description",
          "type": "string"
        },
        {
          "internalType": "uint256",
          "name": "_price",
          "type": "uint256"
        },
        {
          "internalType": "uint256",
          "name": "_moq",
          "type": "uint256"
        }
      ],
      "name": "addProduct",
      "outputs": [],
      "stateMutability": "nonpayable",
      "type": "function"
    },
    {
      "inputs": [
        {
          "internalType": "string",
          "name": "_name",
          "type": "string"
        },
        {
          "internalType": "string",
          "name": "_description",
          "type": "string"
        },
        {
          "internalType": "uint256",
          "name": "_price",
          "type": "uint256"
        }
      ],
      "name": "addTransportService",
      "outputs": [],
      "stateMutability": "nonpayable",
      "type": "function"
    },
    {
      "inputs": [
        {
          "internalType": "uint256",
          "name": "_productId",
          "type": "uint256"
        },
        {
          "internalType": "uint256",
          "name": "_price",
          "type": "uint256"
        },
        {
          "internalType": "uint256",
          "name": "_moq",
          "type": "uint256"
        }
      ],
      "name": "addInventoryItem",
      "outputs": [],
      "stateMutability": "nonpayable",
      "type": "function"
    },
    {
      "inputs": [
        {
          "internalType": "uint256",
          "name": "_id",
          "type": "uint256"
        }
      ],
      "name": "viewInventoryItem",
      "outputs": [
        {
          "internalType": "string",
          "name": "",
          "type": "string"
        },
        {
          "internalType": "string",
          "name": "",
          "type": "string"
        },
        {
          "internalType": "string",
          "name": "",
          "type": "string"
        },
        {
          "internalType": "uint256",
          "name": "",
          "type": "uint256"
        },
        {
          "internalType": "uint256",
          "name": "",
          "type": "uint256"
        },
        {
          "internalType": "enum ProductCreation.ProductSaleStatus",
          "name": "",
          "type": "uint8"
        }
      ],
      "stateMutability": "view",
      "type": "function",
      "constant": true
    }
  ],
  "bytecode": "0x608060405234801561001057600080fd5b50612207806100206000396000f3fe608060405234801561001057600080fd5b506004361061007d5760003560e01c80638917e6211161005b5780638917e621146103e757806393b0202a14610589578063cfa21ab6146105cb578063d35a6e2d146106a35761007d565b806301cecd1414610082578063365b98b21461016457806382f27c12146102bf575b600080fd5b6101626004803603608081101561009857600080fd5b81019080803590602001906401000000008111156100b557600080fd5b8201836020820111156100c757600080fd5b803590602001918460018302840111640100000000831117156100e957600080fd5b90919293919293908035906020019064010000000081111561010a57600080fd5b82018360208201111561011c57600080fd5b8035906020019184600183028401116401000000008311171561013e57600080fd5b9091929391929390803590602001909291908035906020019092919050505061077e565b005b6101906004803603602081101561017a57600080fd5b8101908080359060200190929190505050610ab0565b6040518080602001806020018573ffffffffffffffffffffffffffffffffffffffff1673ffffffffffffffffffffffffffffffffffffffff1681526020018460038111156101da57fe5b60ff168152602001838103835287818151815260200191508051906020019080838360005b8381101561021a5780820151818401526020810190506101ff565b50505050905090810190601f1680156102475780820380516001836020036101000a031916815260200191505b50838103825286818151815260200191508051906020019080838360005b83811015610280578082015181840152602081019050610265565b50505050905090810190601f1680156102ad5780820380516001836020036101000a031916815260200191505b50965050505050505060405180910390f35b6102eb600480360360208110156102d557600080fd5b8101908080359060200190929190505050610c4a565b60405180806020018060200184600381111561030357fe5b60ff168152602001838103835286818151815260200191508051906020019080838360005b83811015610343578082015181840152602081019050610328565b50505050905090810190601f1680156103705780820380516001836020036101000a031916815260200191505b50838103825285818151815260200191508051906020019080838360005b838110156103a957808201518184015260208101905061038e565b50505050905090810190601f1680156103d65780820380516001836020036101000a031916815260200191505b509550505050505060405180910390f35b610413600480360360208110156103fd57600080fd5b8101908080359060200190929190505050610e07565b6040518080602001806020018060200187815260200186815260200185600181111561043b57fe5b60ff16815260200184810384528a818151815260200191508051906020019080838360005b8381101561047b578082015181840152602081019050610460565b50505050905090810190601f1680156104a85780820380516001836020036101000a031916815260200191505b50848103835289818151815260200191508051906020019080838360005b838110156104e15780820151818401526020810190506104c6565b50505050905090810190601f16801561050e5780820380516001836020036101000a031916815260200191505b50848103825288818151815260200191508051906020019080838360005b8381101561054757808201518184015260208101905061052c565b50505050905090810190601f1680156105745780820380516001836020036101000a031916815260200191505b50995050505050505050505060405180910390f35b6105c96004803603606081101561059f57600080fd5b8101908080359060200190929190803590602001909291908035906020019092919050505061115c565b005b6106a1600480360360608110156105e157600080fd5b81019080803590602001906401000000008111156105fe57600080fd5b82018360208201111561061057600080fd5b8035906020019184600183028401116401000000008311171561063257600080fd5b90919293919293908035906020019064010000000081111561065357600080fd5b82018360208201111561066557600080fd5b8035906020019184600183028401116401000000008311171561068757600080fd5b909192939192939080359060200190929190505050611783565b005b61077c600480360360608110156106b957600080fd5b81019080803590602001906401000000008111156106d657600080fd5b8201836020820111156106e857600080fd5b8035906020019184600183028401116401000000008311171561070a57600080fd5b90919293919293908035906020019064010000000081111561072b57600080fd5b82018360208201111561073d57600080fd5b8035906020019184600183028401116401000000008311171561075f57600080fd5b9091929391929390803560ff169060200190929190505050611bd9565b005b60011515600360003373ffffffffffffffffffffffffffffffffffffffff1673ffffffffffffffffffffffffffffffffffffffff16815260200190815260200160002060009054906101000a900460ff16151514610827576040517f08c379a00000000000000000000000000000000000000000000000000000000081526004018080602001828103825260228152602001806121b06022913960400191505060405180910390fd5b6004604051806060016040528088888080601f016020809104026020016040519081016040528093929190818152602001838380828437600081840152601f19601f82011690508083019250505050505050815260200186868080601f016020809104026020016040519081016040528093929190818152602001838380828437600081840152601f19601f8201169050808301925050505050505081526020013373ffffffffffffffffffffffffffffffffffffffff168152509080600181540180825580915050600190039060005260206000209060030201600090919091909150600082015181600001908051906020019061092792919061210a565b50602082015181600101908051906020019061094492919061210a565b5060408201518160020160006101000a81548173ffffffffffffffffffffffffffffffffffffffff021916908373ffffffffffffffffffffffffffffffffffffffff160217905550505060006109a9600160048054905061200090919063ffffffff16565b9050336007600083815260200190815260200160002060006101000a81548173ffffffffffffffffffffffffffffffffffffffff021916908373ffffffffffffffffffffffffffffffffffffffff1602179055507f3f16dcdff7ba9d01c350fd10ed43011166a63dd7cd4f0bf5c8560e272aa20c5181888888886040518086815260200180602001806020018381038352878782818152602001925080828437600081840152601f19601f8201169050808301925050508381038252858582818152602001925080828437600081840152601f19601f82011690508083019250505097505050505050505060405180910390a1610aa781848461115c565b50505050505050565b60008181548110610abd57fe5b9060005260206000209060030201600091509050806000018054600181600116156101000203166002900480601f016020809104026020016040519081016040528092919081815260200182805460018160011615610100020316600290048015610b695780601f10610b3e57610100808354040283529160200191610b69565b820191906000526020600020905b815481529060010190602001808311610b4c57829003601f168201915b505050505090806001018054600181600116156101000203166002900480601f016020809104026020016040519081016040528092919081815260200182805460018160011615610100020316600290048015610c075780601f10610bdc57610100808354040283529160200191610c07565b820191906000526020600020905b815481529060010190602001808311610bea57829003601f168201915b5050505050908060020160009054906101000a900473ffffffffffffffffffffffffffffffffffffffff16908060020160149054906101000a900460ff16905084565b6060806000606060008581548110610c5e57fe5b90600052602060002090600302016000018054600181600116156101000203166002900480601f016020809104026020016040519081016040528092919081815260200182805460018160011615610100020316600290048015610d035780601f10610cd857610100808354040283529160200191610d03565b820191906000526020600020905b815481529060010190602001808311610ce657829003601f168201915b50505050509050606060008681548110610d1957fe5b90600052602060002090600302016001018054600181600116156101000203166002900480601f016020809104026020016040519081016040528092919081815260200182805460018160011615610100020316600290048015610dbe5780601f10610d9357610100808354040283529160200191610dbe565b820191906000526020600020905b815481529060010190602001808311610da157829003601f168201915b505050505090506000808781548110610dd357fe5b906000526020600020906003020160020160149054906101000a900460ff1690508282829550955095505050509193909250565b60608060606000806000606060068881548110610e2057fe5b90600052602060002090600602016000016000018054600181600116156101000203166002900480601f016020809104026020016040519081016040528092919081815260200182805460018160011615610100020316600290048015610ec85780601f10610e9d57610100808354040283529160200191610ec8565b820191906000526020600020905b815481529060010190602001808311610eab57829003601f168201915b50505050509050606060068981548110610ede57fe5b90600052602060002090600602016000016001018054600181600116156101000203166002900480601f016020809104026020016040519081016040528092919081815260200182805460018160011615610100020316600290048015610f865780601f10610f5b57610100808354040283529160200191610f86565b820191906000526020600020905b815481529060010190602001808311610f6957829003601f168201915b50505050509050606060006002600060068d81548110610fa257fe5b906000526020600020906006020160050160019054906101000a900473ffffffffffffffffffffffffffffffffffffffff1673ffffffffffffffffffffffffffffffffffffffff1673ffffffffffffffffffffffffffffffffffffffff168152602001908152602001600020548154811061101957fe5b90600052602060002090600302016000018054600181600116156101000203166002900480601f0160208091040260200160405190810160405280929190818152602001828054600181600116156101000203166002900480156110be5780601f10611093576101008083540402835291602001916110be565b820191906000526020600020905b8154815290600101906020018083116110a157829003601f168201915b50505050509050600060068b815481106110d457fe5b9060005260206000209060060201600301549050600060068c815481106110f757fe5b9060005260206000209060060201600401549050600060068d8154811061111a57fe5b906000526020600020906006020160050160009054906101000a900460ff1690508585858585859b509b509b509b509b509b5050505050505091939550919395565b60011515600360003373ffffffffffffffffffffffffffffffffffffffff1673ffffffffffffffffffffffffffffffffffffffff16815260200190815260200160002060009054906101000a900460ff16151514611205576040517f08c379a00000000000000000000000000000000000000000000000000000000081526004018080602001828103825260228152602001806121b06022913960400191505060405180910390fd5b60066040518060a001604052806004868154811061121f57fe5b9060005260206000209060030201604051806060016040529081600082018054600181600116156101000203166002900480601f0160208091040260200160405190810160405280929190818152602001828054600181600116156101000203166002900480156112d15780601f106112a6576101008083540402835291602001916112d1565b820191906000526020600020905b8154815290600101906020018083116112b457829003601f168201915b50505050508152602001600182018054600181600116156101000203166002900480601f0160208091040260200160405190810160405280929190818152602001828054600181600116156101000203166002900480156113735780601f1061134857610100808354040283529160200191611373565b820191906000526020600020905b81548152906001019060200180831161135657829003601f168201915b505050505081526020016002820160009054906101000a900473ffffffffffffffffffffffffffffffffffffffff1673ffffffffffffffffffffffffffffffffffffffff1673ffffffffffffffffffffffffffffffffffffffff16815250508152602001848152602001838152602001600060018111156113f057fe5b81526020013373ffffffffffffffffffffffffffffffffffffffff168152509080600181540180825580915050600190039060005260206000209060060201600090919091909150600082015181600001600082015181600001908051906020019061145d92919061210a565b50602082015181600101908051906020019061147a92919061210a565b5060408201518160020160006101000a81548173ffffffffffffffffffffffffffffffffffffffff021916908373ffffffffffffffffffffffffffffffffffffffff1602179055505050602082015181600301556040820151816004015560608201518160050160006101000a81548160ff021916908360018111156114fc57fe5b021790555060808201518160050160016101000a81548173ffffffffffffffffffffffffffffffffffffffff021916908373ffffffffffffffffffffffffffffffffffffffff160217905550505060006001600680549050039050336009600083815260200190815260200160002060006101000a81548173ffffffffffffffffffffffffffffffffffffffff021916908373ffffffffffffffffffffffffffffffffffffffff1602179055507f05325ee361c3f80a52d44d6bda5c30795cdbdaa88bfce86728179ff94572ccfa81600486815481106115d857fe5b90600052602060002090600302016000016000600260003373ffffffffffffffffffffffffffffffffffffffff1673ffffffffffffffffffffffffffffffffffffffff168152602001908152602001600020548154811061163557fe5b906000526020600020906003020160000186866040518086815260200180602001806020018581526020018481526020018381038352878181546001816001161561010002031660029004815260200191508054600181600116156101000203166002900480156116e75780601f106116bc576101008083540402835291602001916116e7565b820191906000526020600020905b8154815290600101906020018083116116ca57829003601f168201915b505083810382528681815460018160011615610100020316600290048152602001915080546001816001161561010002031660029004801561176a5780601f1061173f5761010080835404028352916020019161176a565b820191906000526020600020905b81548152906001019060200180831161174d57829003601f168201915b505097505050505050505060405180910390a150505050565b60011515600360003373ffffffffffffffffffffffffffffffffffffffff1673ffffffffffffffffffffffffffffffffffffffff16815260200190815260200160002060009054906101000a900460ff1615151461182c576040517f08c379a00000000000000000000000000000000000000000000000000000000081526004018080602001828103825260228152602001806121b06022913960400191505060405180910390fd5b60606000600260003373ffffffffffffffffffffffffffffffffffffffff1673ffffffffffffffffffffffffffffffffffffffff168152602001908152602001600020548154811061187a57fe5b90600052602060002090600302016000018054600181600116156101000203166002900480601f01602080910402602001604051908101604052809291908181526020018280546001816001161561010002031660029004801561191f5780601f106118f45761010080835404028352916020019161191f565b820191906000526020600020905b81548152906001019060200180831161190257829003601f168201915b505050505090506005604051806080016040528088888080601f016020809104026020016040519081016040528093929190818152602001838380828437600081840152601f19601f82011690508083019250505050505050815260200186868080601f016020809104026020016040519081016040528093929190818152602001838380828437600081840152601f19601f8201169050808301925050505050505081526020018381526020018481525090806001815401808255809150506001900390600052602060002090600402016000909190919091506000820151816000019080519060200190611a1692919061210a565b506020820151816001019080519060200190611a3392919061210a565b506040820151816002019080519060200190611a5092919061210a565b5060608201518160030155505060006001600580549050039050336008600083815260200190815260200160002060006101000a81548173ffffffffffffffffffffffffffffffffffffffff021916908373ffffffffffffffffffffffffffffffffffffffff1602179055507f6ecf6e7361e9cb1c80560e36f0b59ef0d38f0b6e6ee0ac1db99995706c219258818888888887896040518088815260200180602001806020018060200185815260200184810384528a8a82818152602001925080828437600081840152601f19601f8201169050808301925050508481038352888882818152602001925080828437600081840152601f19601f820116905080830192505050848103825286818151815260200191508051906020019080838360005b83811015611b8e578082015181840152602081019050611b73565b50505050905090810190601f168015611bbb5780820380516001836020036101000a031916815260200191505b509a505050505050505050505060405180910390a150505050505050565b3360001515600360008373ffffffffffffffffffffffffffffffffffffffff1673ffffffffffffffffffffffffffffffffffffffff16815260200190815260200160002060009054906101000a900460ff16151514611ca0576040517f08c379a000000000000000000000000000000000000000000000000000000000815260040180806020018281038252601b8152602001807f596f7520616c7265616479206861766520616e206163636f756e74000000000081525060200191505060405180910390fd5b6000604051806080016040528088888080601f016020809104026020016040519081016040528093929190818152602001838380828437600081840152601f19601f82011690508083019250505050505050815260200186868080601f016020809104026020016040519081016040528093929190818152602001838380828437600081840152601f19601f8201169050808301925050505050505081526020013373ffffffffffffffffffffffffffffffffffffffff168152602001846003811115611d6957fe5b81525090806001815401808255809150506001900390600052602060002090600302016000909190919091506000820151816000019080519060200190611db192919061210a565b506020820151816001019080519060200190611dce92919061210a565b5060408201518160020160006101000a81548173ffffffffffffffffffffffffffffffffffffffff021916908373ffffffffffffffffffffffffffffffffffffffff16021790555060608201518160020160146101000a81548160ff02191690836003811115611e3a57fe5b02179055505050600060016000805490500363ffffffff169050336001600083815260200190815260200160002060006101000a81548173ffffffffffffffffffffffffffffffffffffffff021916908373ffffffffffffffffffffffffffffffffffffffff16021790555080600260003373ffffffffffffffffffffffffffffffffffffffff1673ffffffffffffffffffffffffffffffffffffffff168152602001908152602001600020819055506001600360003373ffffffffffffffffffffffffffffffffffffffff1673ffffffffffffffffffffffffffffffffffffffff16815260200190815260200160002060006101000a81548160ff0219169083151502179055507f6bc9dfa6cd5c47cfda0a28c8500dc038d68815409167dd17805597f5c0543819818888888888604051808781526020018060200180602001846003811115611f8757fe5b60ff1681526020018381038352888882818152602001925080828437600081840152601f19601f8201169050808301925050508381038252868682818152602001925080828437600081840152601f19601f8201169050808301925050509850505050505050505060405180910390a150505050505050565b600061204283836040518060400160405280601e81526020017f536166654d6174683a207375627472616374696f6e206f766572666c6f77000081525061204a565b905092915050565b60008383111582906120f7576040517f08c379a00000000000000000000000000000000000000000000000000000000081526004018080602001828103825283818151815260200191508051906020019080838360005b838110156120bc5780820151818401526020810190506120a1565b50505050905090810190601f1680156120e95780820380516001836020036101000a031916815260200191505b509250505060405180910390fd5b5060008385039050809150509392505050565b828054600181600116156101000203166002900490600052602060002090601f016020900481019282601f1061214b57805160ff1916838001178555612179565b82800160010185558215612179579182015b8281111561217857825182559160200191906001019061215d565b5b509050612186919061218a565b5090565b6121ac91905b808211156121a8576000816000905550600101612190565b5090565b9056fe506c65617365207265677374657220696e746f206f75722073697465206669727374a2646970667358221220bbbca3be9fd856b4c74ae20f31082ffce8a8e67b8ec8abf0146aebacceeedc8564736f6c63430006000033",
  "source": "// SPDX-License-Identifier: UNLICENSED\r\npragma solidity ^0.6.0;\r\n\r\nimport \"./userRegistration.sol\";\r\nimport \"@openzeppelin/contracts/math/SafeMath.sol\";\r\n\r\ncontract ProductCreation is UserRegistration {\r\n    using SafeMath for uint256;\r\n\r\n    enum ProductSaleStatus {onSale, soldOut}\r\n\r\n    struct Product {\r\n        string name;\r\n        string description;\r\n        address createdBy;\r\n    }\r\n\r\n    struct TransportService {\r\n        string name;\r\n        string description;\r\n        string provider;\r\n        uint256 cost;\r\n    }\r\n\r\n    struct VendorInventory {\r\n        Product item;\r\n        uint256 price;\r\n        uint256 minimumOrderQuantity;\r\n        ProductSaleStatus saleStatus;\r\n        address seller;\r\n    }\r\n\r\n    Product[] products;\r\n    TransportService[] transportServices;\r\n    VendorInventory[] vendorInventory;\r\n    mapping(uint256 => address) productToCreator;\r\n    mapping(uint256 => address) transportServicesToProvider;\r\n    mapping(uint256 => address) inventory;\r\n\r\n    event newProduct(uint256 _id, string name, string description);\r\n    event newTransportService(\r\n        uint256 _id,\r\n        string _name,\r\n        string _description,\r\n        string _provider,\r\n        uint256 _price\r\n    );\r\n    event newIventoryItem(\r\n        uint256 _id,\r\n        string itemName,\r\n        string _vendor,\r\n        uint256 _price,\r\n        uint256 _moq\r\n    );\r\n\r\n    modifier usersOnly() {\r\n        require(\r\n            alreadyRegistered[msg.sender] == true,\r\n            \"Please regster into our site first\"\r\n        );\r\n        _;\r\n    }\r\n\r\n    // modifier vendorAndManufacturerOnly () {\r\n    //     assert(keccak256(abi.encodePacked((User[userToProfile[msg.sender]].role))) == keccak256(abi.encodePacked((UserType.manufacturer))) || keccak256(abi.encodePacked((User[userToProfile[msg.sender]].role))) == keccak256(abi.encodePacked((UserType.vendor))), \"You have to be registered as a manufacturer or vendor to add a product\");\r\n    //     _;\r\n    // }\r\n\r\n    // modifier transportersOnly () {\r\n    //     require(User[userToProfile[msg.sender]].role == UserType.transporter, \"You have to be registered as a transporter to add a transport service\");\r\n    //     _;\r\n    // }\r\n\r\n    function addProduct(\r\n        string calldata _name,\r\n        string calldata _description,\r\n        uint256 _price,\r\n        uint256 _moq\r\n    ) external usersOnly /*vendorAndManufacturerOnly*/\r\n    {\r\n        products.push(Product(_name, _description, msg.sender));\r\n        uint256 id = products.length.sub(1);\r\n        productToCreator[id] = msg.sender;\r\n        emit newProduct(id, _name, _description);\r\n        addInventoryItem(id, _price, _moq);\r\n    }\r\n\r\n    function addTransportService(\r\n        string calldata _name,\r\n        string calldata _description,\r\n        uint256 _price\r\n    ) external usersOnly /*transportersOnly*/\r\n    {\r\n        string memory providerName = users[userToProfile[msg.sender]].name;\r\n        transportServices.push(\r\n            TransportService(_name, _description, providerName, _price)\r\n        );\r\n        uint256 id = transportServices.length - 1;\r\n        transportServicesToProvider[id] = msg.sender;\r\n        emit newTransportService(id, _name, _description, providerName, _price);\r\n    }\r\n\r\n    function addInventoryItem(\r\n        uint256 _productId,\r\n        uint256 _price,\r\n        uint256 _moq\r\n    ) public usersOnly /*vendorAndManufacturerOnly*/\r\n    {\r\n        // uint _moq = 1;\r\n\r\n        // if (keccak256(abi.encodePacked((User[userToProfile[msg.sender]].role) == keccak256(abi.encodePacked((UserType.manufacturer)))))) {\r\n        //     _moq = 5;\r\n        // }\r\n        vendorInventory.push(\r\n            VendorInventory(\r\n                products[_productId],\r\n                _price,\r\n                _moq,\r\n                ProductSaleStatus.onSale,\r\n                msg.sender\r\n            )\r\n        );\r\n        uint256 id = vendorInventory.length - 1;\r\n        inventory[id] = msg.sender;\r\n        emit newIventoryItem(\r\n            id,\r\n            products[_productId].name,\r\n            users[userToProfile[msg.sender]].name,\r\n            _price,\r\n            _moq\r\n        );\r\n    }\r\n\r\n    function viewInventoryItem(uint256 _id)\r\n        public\r\n        view\r\n        returns (\r\n            string memory,\r\n            string memory,\r\n            string memory,\r\n            uint256,\r\n            uint256,\r\n            ProductSaleStatus\r\n        )\r\n    {\r\n        string memory name = vendorInventory[_id].item.name;\r\n        string memory _description = vendorInventory[_id].item.description;\r\n        string memory _seller =\r\n            users[userToProfile[vendorInventory[_id].seller]].name;\r\n        uint256 _price = vendorInventory[_id].price;\r\n        uint256 _moq = vendorInventory[_id].minimumOrderQuantity;\r\n        ProductSaleStatus _saleStatus = vendorInventory[_id].saleStatus;\r\n        return (name, _description, _seller, _price, _moq, _saleStatus);\r\n    }\r\n}\r\n",
  "sourcePath": "C:\\Users\\Sam\\Documents\\KryptMart\\KryptMart\\contracts\\productCreation.sol",
  "compiler": {
    "name": "solc",
    "version": "0.6.0+commit.26b70077.Emscripten.clang"
  },
  "schemaVersion": "3.2.5",
  "updatedAt": "2020-12-20T23:59:38.033Z",
  "networkType": "ethereum",
  "devdoc": {
    "methods": {}
  },
  "userdoc": {
    "methods": {}
  }
}