{
  "contractName": "UserRegistration",
  "abi": [
    {
      "anonymous": false,
      "inputs": [
        {
          "indexed": false,
          "internalType": "uint256",
          "name": "id",
          "type": "uint256"
        },
        {
          "indexed": false,
          "internalType": "string",
          "name": "name",
          "type": "string"
        },
        {
          "indexed": false,
          "internalType": "string",
          "name": "description",
          "type": "string"
        },
        {
          "indexed": false,
          "internalType": "enum UserRegistration.UserType",
          "name": "role",
          "type": "uint8"
        }
      ],
      "name": "newUser",
      "type": "event"
    },
    {
      "inputs": [
        {
          "internalType": "uint256",
          "name": "",
          "type": "uint256"
        }
      ],
      "name": "users",
      "outputs": [
        {
          "internalType": "string",
          "name": "name",
          "type": "string"
        },
        {
          "internalType": "string",
          "name": "description",
          "type": "string"
        },
        {
          "internalType": "address",
          "name": "userAccount",
          "type": "address"
        },
        {
          "internalType": "enum UserRegistration.UserType",
          "name": "role",
          "type": "uint8"
        }
      ],
      "stateMutability": "view",
      "type": "function",
      "constant": true
    },
    {
      "inputs": [
        {
          "internalType": "string",
          "name": "_name",
          "type": "string"
        },
        {
          "internalType": "string",
          "name": "_description",
          "type": "string"
        },
        {
          "internalType": "enum UserRegistration.UserType",
          "name": "_role",
          "type": "uint8"
        }
      ],
      "name": "addUser",
      "outputs": [],
      "stateMutability": "nonpayable",
      "type": "function"
    },
    {
      "inputs": [
        {
          "internalType": "uint256",
          "name": "_userId",
          "type": "uint256"
        }
      ],
      "name": "viewUser",
      "outputs": [
        {
          "internalType": "string",
          "name": "",
          "type": "string"
        },
        {
          "internalType": "string",
          "name": "",
          "type": "string"
        },
        {
          "internalType": "enum UserRegistration.UserType",
          "name": "",
          "type": "uint8"
        }
      ],
      "stateMutability": "view",
      "type": "function",
      "constant": true
    }
  ],
  "bytecode": "0x608060405234801561001057600080fd5b50610bfd806100206000396000f3fe608060405234801561001057600080fd5b50600436106100415760003560e01c8063365b98b21461004657806382f27c12146101a1578063d35a6e2d146102c9575b600080fd5b6100726004803603602081101561005c57600080fd5b81019080803590602001909291905050506103a4565b6040518080602001806020018573ffffffffffffffffffffffffffffffffffffffff1673ffffffffffffffffffffffffffffffffffffffff1681526020018460038111156100bc57fe5b60ff168152602001838103835287818151815260200191508051906020019080838360005b838110156100fc5780820151818401526020810190506100e1565b50505050905090810190601f1680156101295780820380516001836020036101000a031916815260200191505b50838103825286818151815260200191508051906020019080838360005b83811015610162578082015181840152602081019050610147565b50505050905090810190601f16801561018f5780820380516001836020036101000a031916815260200191505b50965050505050505060405180910390f35b6101cd600480360360208110156101b757600080fd5b810190808035906020019092919050505061053e565b6040518080602001806020018460038111156101e557fe5b60ff168152602001838103835286818151815260200191508051906020019080838360005b8381101561022557808201518184015260208101905061020a565b50505050905090810190601f1680156102525780820380516001836020036101000a031916815260200191505b50838103825285818151815260200191508051906020019080838360005b8381101561028b578082015181840152602081019050610270565b50505050905090810190601f1680156102b85780820380516001836020036101000a031916815260200191505b509550505050505060405180910390f35b6103a2600480360360608110156102df57600080fd5b81019080803590602001906401000000008111156102fc57600080fd5b82018360208201111561030e57600080fd5b8035906020019184600183028401116401000000008311171561033057600080fd5b90919293919293908035906020019064010000000081111561035157600080fd5b82018360208201111561036357600080fd5b8035906020019184600183028401116401000000008311171561038557600080fd5b9091929391929390803560ff1690602001909291905050506106fb565b005b600081815481106103b157fe5b9060005260206000209060030201600091509050806000018054600181600116156101000203166002900480601f01602080910402602001604051908101604052809291908181526020018280546001816001161561010002031660029004801561045d5780601f106104325761010080835404028352916020019161045d565b820191906000526020600020905b81548152906001019060200180831161044057829003601f168201915b505050505090806001018054600181600116156101000203166002900480601f0160208091040260200160405190810160405280929190818152602001828054600181600116156101000203166002900480156104fb5780601f106104d0576101008083540402835291602001916104fb565b820191906000526020600020905b8154815290600101906020018083116104de57829003601f168201915b5050505050908060020160009054906101000a900473ffffffffffffffffffffffffffffffffffffffff16908060020160149054906101000a900460ff16905084565b606080600060606000858154811061055257fe5b90600052602060002090600302016000018054600181600116156101000203166002900480601f0160208091040260200160405190810160405280929190818152602001828054600181600116156101000203166002900480156105f75780601f106105cc576101008083540402835291602001916105f7565b820191906000526020600020905b8154815290600101906020018083116105da57829003601f168201915b5050505050905060606000868154811061060d57fe5b90600052602060002090600302016001018054600181600116156101000203166002900480601f0160208091040260200160405190810160405280929190818152602001828054600181600116156101000203166002900480156106b25780601f10610687576101008083540402835291602001916106b2565b820191906000526020600020905b81548152906001019060200180831161069557829003601f168201915b5050505050905060008087815481106106c757fe5b906000526020600020906003020160020160149054906101000a900460ff1690508282829550955095505050509193909250565b3360001515600360008373ffffffffffffffffffffffffffffffffffffffff1673ffffffffffffffffffffffffffffffffffffffff16815260200190815260200160002060009054906101000a900460ff161515146107c2576040517f08c379a000000000000000000000000000000000000000000000000000000000815260040180806020018281038252601b8152602001807f596f7520616c7265616479206861766520616e206163636f756e74000000000081525060200191505060405180910390fd5b6000604051806080016040528088888080601f016020809104026020016040519081016040528093929190818152602001838380828437600081840152601f19601f82011690508083019250505050505050815260200186868080601f016020809104026020016040519081016040528093929190818152602001838380828437600081840152601f19601f8201169050808301925050505050505081526020013373ffffffffffffffffffffffffffffffffffffffff16815260200184600381111561088b57fe5b815250908060018154018082558091505060019003906000526020600020906003020160009091909190915060008201518160000190805190602001906108d3929190610b22565b5060208201518160010190805190602001906108f0929190610b22565b5060408201518160020160006101000a81548173ffffffffffffffffffffffffffffffffffffffff021916908373ffffffffffffffffffffffffffffffffffffffff16021790555060608201518160020160146101000a81548160ff0219169083600381111561095c57fe5b02179055505050600060016000805490500363ffffffff169050336001600083815260200190815260200160002060006101000a81548173ffffffffffffffffffffffffffffffffffffffff021916908373ffffffffffffffffffffffffffffffffffffffff16021790555080600260003373ffffffffffffffffffffffffffffffffffffffff1673ffffffffffffffffffffffffffffffffffffffff168152602001908152602001600020819055506001600360003373ffffffffffffffffffffffffffffffffffffffff1673ffffffffffffffffffffffffffffffffffffffff16815260200190815260200160002060006101000a81548160ff0219169083151502179055507f6bc9dfa6cd5c47cfda0a28c8500dc038d68815409167dd17805597f5c0543819818888888888604051808781526020018060200180602001846003811115610aa957fe5b60ff1681526020018381038352888882818152602001925080828437600081840152601f19601f8201169050808301925050508381038252868682818152602001925080828437600081840152601f19601f8201169050808301925050509850505050505050505060405180910390a150505050505050565b828054600181600116156101000203166002900490600052602060002090601f016020900481019282601f10610b6357805160ff1916838001178555610b91565b82800160010185558215610b91579182015b82811115610b90578251825591602001919060010190610b75565b5b509050610b9e9190610ba2565b5090565b610bc491905b80821115610bc0576000816000905550600101610ba8565b5090565b9056fea26469706673582212207f33657b1a548f936814bbbf7fa9f2e9fb3d1f7e0e16c39f555c346ad888301364736f6c63430006000033",
  "source": "// SPDX-License-Identifier: UNLICENSED\r\npragma solidity ^0.6.0;\r\n\r\ncontract UserRegistration {\r\n    enum UserType {manufacturer, transporter, vendor, buyer}\r\n\r\n    event newUser(uint256 id, string name, string description, UserType role);\r\n\r\n    modifier checkRegistered(address _check) {\r\n        require(\r\n            alreadyRegistered[_check] == false,\r\n            \"You already have an account\"\r\n        );\r\n        _;\r\n    }\r\n\r\n    struct User {\r\n        string name;\r\n        string description;\r\n        address userAccount;\r\n        UserType role;\r\n    }\r\n\r\n    User[] public users;\r\n    mapping(uint256 => address) profileToUser;\r\n    mapping(address => uint256) userToProfile;\r\n    mapping(address => bool) alreadyRegistered;\r\n\r\n    function addUser(\r\n        string calldata _name,\r\n        string calldata _description,\r\n        UserType _role\r\n    ) external checkRegistered(msg.sender) {\r\n        users.push(User(_name, _description, msg.sender, _role));\r\n        uint256 id = uint32(users.length - 1);\r\n        profileToUser[id] = msg.sender;\r\n        userToProfile[msg.sender] = id;\r\n        alreadyRegistered[msg.sender] = true;\r\n        emit newUser(id, _name, _description, _role);\r\n    }\r\n\r\n    function viewUser(uint256 _userId)\r\n        public\r\n        view\r\n        returns (\r\n            string memory,\r\n            string memory,\r\n            UserType\r\n        )\r\n    {\r\n        string memory _name = users[_userId].name;\r\n        string memory _description = users[_userId].description;\r\n        UserType _role = users[_userId].role;\r\n\r\n        return (_name, _description, _role);\r\n    }\r\n\r\n    // function editUserDetails() {\r\n\r\n    // }\r\n}\r\n",
  "sourcePath": "C:\\Users\\Sam\\Documents\\KryptMart\\KryptMart\\contracts\\userRegistration.sol",
  "compiler": {
    "name": "solc",
    "version": "0.6.0+commit.26b70077.Emscripten.clang"
  },
  "schemaVersion": "3.2.5",
  "updatedAt": "2020-12-20T23:23:48.399Z",
  "networkType": "ethereum",
  "devdoc": {
    "methods": {}
  },
  "userdoc": {
    "methods": {}
  }
}